:020000040800F2
:1000000000300020212C0008112B0008132B0008C1
:1000100000000000000000000000000000000000E0
:10002000000000000000000000000000152B000888
:100030000000000000000000172B0008192B00082A
:10004000712C000800000000712C0008712C0008C1
:10005000712C0008712C0008712C0008712C00080C
:1000600000000000712C0008712C0008712C0008A1
:10007000712C0008712C0008712C00080000000091
:10008000712C00080000000000000000712C000826
:1000900000000000712C0008712C0008712C000871
:1000A00000000000712C000800000000212B000857
:1000B000712C00080000000000000000000000009B
:1000C00010B5064C2378002B07D1054B002B02D02E
:1000D000044800E000BF0123237010BDD4010020BC
:1000E0000000000074780008044B10B5002B03D00A
:1000F0000349044800E000BF10BDC04600000000F6
:10010000D8010020747800080023C25C0133002A63
:10011000FBD1581E7047000002B4714649084900DF
:10012000095C49008E4402BC7047C04603B4714666
:10013000490840004900095E49008E4403BC7047ED
:10014000002243088B4274D303098B425FD3030A16
:100150008B4244D3030B8B4228D3030C8B420DD329
:10016000FF22090212BA030C8B4202D312120902B7
:1001700065D0030B8B4219D300E0090AC30B8B42F5
:1001800001D3CB03C01A5241830B8B4201D38B03A3
:10019000C01A5241430B8B4201D34B03C01A524148
:1001A000030B8B4201D30B03C01A5241C30A8B428B
:1001B00001D3CB02C01A5241830A8B4201D38B0276
:1001C000C01A5241430A8B4201D34B02C01A52411A
:1001D000030A8B4201D30B02C01A5241CDD2C3098C
:1001E0008B4201D3CB01C01A524183098B4201D308
:1001F0008B01C01A524143098B4201D34B01C01AF3
:10020000524103098B4201D30B01C01A5241C3086A
:100210008B4201D3CB00C01A524183088B4201D3D9
:100220008B00C01A524143088B4201D34B00C01AC5
:100230005241411A00D20146524110467047FFE731
:1002400001B5002000F0F0F802BDC0460029F7D04B
:1002500076E7704703460B437FD4002243088B4266
:1002600074D303098B425FD3030A8B4244D3030B3D
:100270008B4228D3030C8B420DD3FF22090212BA02
:10028000030C8B4202D31212090265D0030B8B427E
:1002900019D300E0090AC30B8B4201D3CB03C01A68
:1002A0005241830B8B4201D38B03C01A5241430B43
:1002B0008B4201D34B03C01A5241030B8B4201D333
:1002C0000B03C01A5241C30A8B4201D3CB02C01A9E
:1002D0005241830A8B4201D38B02C01A5241430A16
:1002E0008B4201D34B02C01A5241030A8B4201D305
:1002F0000B02C01A5241CDD2C3098B4201D3CB01AC
:10030000C01A524183098B4201D38B01C01A52415A
:1003100043098B4201D34B01C01A524103098B425E
:1003200001D30B01C01A5241C3088B4201D3CB0049
:10033000C01A524183088B4201D38B00C01A52412C
:1003400043088B4201D34B00C01A5241411A00D2DC
:1003500001465241104670475DE0CA0F00D0494245
:10036000031000D34042534000229C4603098B42B5
:100370002DD3030A8B4212D3FC22890112BA030A3D
:100380008B420CD3890192118B4208D389019211BF
:100390008B4204D389013AD0921100E08909C30944
:1003A0008B4201D3CB01C01A524183098B4201D346
:1003B0008B01C01A524143098B4201D34B01C01A31
:1003C000524103098B4201D30B01C01A5241C308A9
:1003D0008B4201D3CB00C01A524183088B4201D318
:1003E0008B00C01A5241D9D243088B4201D34B0033
:1003F000C01A5241411A00D20146634652415B1075
:10040000104601D34042002B00D549427047634655
:100410005B1000D3404201B5002000F005F802BD9A
:100420000029F8D016E770477047C0468446100090
:1004300062468C461900634600E0C0461FB501F0D5
:10044000E9F8002801D40021C8421FBD10B501F011
:1004500029F84042013010BD10B501F0DBF800284A
:1004600001DB002010BD012010BDC04610B501F019
:10047000D1F8002801DD002010BD012010BDC046CC
:1004800010B501F053F8002801DC002010BD012058
:1004900010BDC04610B501F049F8002801DA00206F
:1004A00010BD012010BDC046F0B54F464646D646A9
:1004B00043025B0A4500C0B599460F1C2D0EC60FBE
:1004C000002D00D188E0FF2D00D18DE08022DB00DF
:1004D000D2041A430023914698469A467F3D7C02F7
:1004E0007B00640A1B0EFF0F002B68D0FF2B21D06E
:1004F0008022E400D204144342467F3B5B19002172
:100500005D1C0A2A2EDC7E404246022A23DC013A88
:10051000012A00D9BDE002296ED001292CD100208A
:100520000022C005F60710433043E0BCBA46B1468E
:10053000A846F0BD2B00FF33002C65D003224146B6
:1005400011433200013588467A40FF350A2900DD23
:10055000D8E016000321404601228240A620C000B8
:10056000024220D05346022B46D0032B00D1BBE0E1
:1005700051464C460129D2D02B007F33002B70DD31
:10058000620704D00F222240042A00D00434220142
:1005900003D5634B1C402B008033FE2B2CDCA201C7
:1005A000520AD8B2BDE790208000024227D1B93864
:1005B000FF3810426DD03E00A1468A46D2E7002C9B
:1005C00041D1012342461A4390462B004246012165
:1005D0005D1C0A2A97DDC5E7002B26D10423984627
:1005E000033B00259A467AE7002B18D1082398464A
:1005F000063BFF259A4672E7FF20002291E7802202
:100600000026FF20D2038CE7414602220135114328
:100610008846FF350A29A5DC02217E4074E70C23B9
:100620009846093BFF259A4659E7180001F0C0FF9C
:100630004A46431F76259A4000236D4291469846CC
:100640009A462D1A4BE7200001F0B2FF4246431FA5
:100650009C402B1A763B00215D1C0A2A00DC52E7E5
:1006600080E70122D31A1B2B00DD58E79E352200BC
:10067000AC40DA40631E9C412243530704D00F2351
:100680001340042B00D00432530137D5012000223F
:1006900047E7210C4A462404240C2700100C1204BE
:1006A000120C44435743484351433A0C091952181A
:1006B000944203D9802149028C4660443F041104CE
:1006C0003F0CC9198C01671EBC41120C890E12180F
:1006D0000C439201144312010ED5012362081C4001
:1006E000144349E73E00A14680224B46D2031A43F9
:1006F0005202FF20520A14E71D003DE7920100203C
:10070000520A0EE70F29EDD180224B46D203134245
:10071000EAD01442E8D13E00FF20224301E7C04660
:10072000FFFFFFF770B5041E0ED001F041FF9E23BE
:1007300001001B1A962B0CDC08282FD008398C409E
:100740006402640AD8B201E000200024C0052043FE
:1007500070BD992B16DC421F052800D09440220062
:1007600010480240650709D00F252C40042C05D005
:100770000432540102D59F2302405B1A9201540AAD
:10078000D8B2E3E7020020001B3290400200501E66
:1007900082410520401AC4401443E0E764029620D9
:1007A000640AD3E7FFFFFFFBF0B557464E464546C8
:1007B000DE46E0B583B0009001910C034F00CE0FF0
:1007C000610A009C1D03640F0C4300990092019381
:1007D000C80059004B0D9946009A019B6D0AD90F2C
:1007E000530F2B439A46009B7F0DDA0094464A46EE
:1007F000B046BA1A8E4200D1B0E0002A00DC78E0A0
:100800004946002900D1E9E0C9498F4200D195E16C
:100810000125382A16DC8021534609040B439A46E9
:100820001F2A00DDE7E1202155468B1A61469D40D5
:10083000D1400D43614699404B1E99415346D340E8
:100840000D43E41A451BA84280414042241A23026A
:1008500000D40FE16402640A002C00D139E12000C9
:1008600001F0A6FE0300083B20212800CA1AD04050
:100870009C4002009D4022439F4200DD73E1D81B53
:100880000130091A2C008D40C4406B1E9D4113009D
:10089000C2408B402543002714001D436B0709D03D
:1008A0000F232B40042B05D02B1DAB42AD416D42D5
:1008B00064191D00230200D42DE19D4A013797429F
:1008C00000D1D3E046469B49ED0821404A072A4320
:1008D0007C054D022D0B640D24052C43F607344393
:1008E0001000210003B0F0BCBB46B246A946A046AA
:1008F000F0BD002A00D184E04A46D21B002F00D070
:100900006DE12500054300D127E1561E012A00D1E3
:100910003BE2874DAA4200D16AE20125382E12DC63
:1009200032001F2A00DDF8E120262500B61A070054
:100930005346B040D440B540D740461EB0411B1B83
:100940009A463D4305436246551BAC45924153468A
:1009500052420E004F4688469C1A78E7002A00DC77
:100960008EE04946002975D161465346194300D1AE
:10097000F6E0511E012A00D191E16D4DAA4200D14D
:10098000DCE00125382914DC0A001F2A00DDA2E181
:1009900020215346891A8B401D006346D3401D43D6
:1009A00063468B4019004B1E99415346D3400D437B
:1009B000E4182D188542804140422418230259D55D
:1009C0005B4B01379F4251D001215A4B6A081C40B2
:1009D00029400A43E507154364085FE7614653462B
:1009E000194300D1BCE0511E012A00D164E1504DF1
:1009F000AA4200D16AE10125382900DD22E70A0078
:100A00000EE74D4A7D1C154200D0D0E0250062461D
:100A1000534605431A43002F00D037E1002D00D183
:100A2000A8E1002A00D16AE16346C51A5346E21ADA
:100A3000A8429B415B42D31A1A0200D403E26346E8
:100A40001D1AAC459241534652421C1B0E0088466B
:100A5000A41A23E736498F4270D00125382AA8DC32
:100A60008021534609040B439A468EE73C0000253B
:100A7000002231E707232B40002B00D010E793E042
:100A8000002A74D04A46D21B002F00D1C7E0284963
:100A9000894500D185E10125382A12DC802109042D
:100AA0000C431F2A00DDABE120212500891A070035
:100AB00088408D40D740411E8841D4403D43054386
:100AC000A2446544654592415242524414004F4647
:100AD00074E7280001F06CFD030018331F2B00DCC5
:100AE000C2E62A00083882409F4200DDA9E0DB1BF5
:100AF000581C1F2800DCACE115001F3BDD402028FE
:100B000005D040231B1A9A40531E9A4115430723D0
:100B100000272B40B0E7ED08054B62072A43E408A5
:100B20009F420FD02403250B7C05640DD4E6C046FC
:100B3000FF070000FFFF7FFFFE070000C0086207FD
:100B40000243E4081300234300D186E180252D03EE
:100B500025432D03C34C2D0BBEE6604654460E00C4
:100B60001700C508D8E7C04CFF1A144096E6BF4AE4
:100B7000791C11426BD122000243002F00D0DBE030
:100B8000002A00D12DE1624653461A4300D1B6E057
:100B90006346C518854280415444404224182302CC
:100BA00002D50F00B04B1C403A002800D8E762463F
:100BB000851AA8429241534652429146E31A1A00BE
:100BC0004B46D21A130091461A0254D44A464C4658
:100BD0002A4300D040E60026002400257CE6A14DF3
:100BE000A94500D190E00125382A00DDABE680253B
:100BF0002D042C4395E6110055462039CD40A946D9
:100C0000202A06D0402153468A1A934062461A434E
:100C1000944665466B1E9D414B461D4312E62100DE
:100C2000014300D1C4E0511E012A00D1FBE08D4DEB
:100C3000AA4200D1B5E00125382900DD41E70A00CC
:100C40002FE7894CFF1A14406207E4086AE7854AD7
:100C5000914200D1E3E06346C21882428041230002
:100C6000404253441B18DD075C0807235208154314
:100C70000F002B4000E763461D1AAC4592415346D6
:100C800052421C1B0E008846A41AE5E5002D00D038
:100C900091E0002A38D180240026240356E76346D9
:100CA000C51885428041544440422418012723023C
:100CB00000D4DFE6022787E66346C51AA8428041D2
:100CC00053464042E41A0127241AC0E56207C008CF
:100CD0000243E40836E7110053462039CB409946D9
:100CE000202A06D0402153468A1A934062461A436E
:100CF000944665466B1E9D414B461D4359E662076F
:100D0000C0080243E4080DE753465A076346D80873
:100D100053460E000243DC0814E715002600203D70
:100D2000EE40202A03D04025AA1A94402043421EB8
:100D300090410500354306E6002A7CD062465346C2
:100D4000C0081A4300D1FAE6620710438022E40883
:100D50001203144208D0D908114205D16346D808BD
:100D600053460C005B071843420FC000C0085207EF
:100D70000243E7E6002A00D12DE76346D808534630
:100D80005A070E000243DC08CCE663461D1AAC4548
:100D90009241534652421C1B0E008846A41A01374A
:100DA00055E56346D90853465A070A43DC08C9E6A5
:100DB00060465446D4E6C008002A00D1BFE6620768
:100DC00010438022E40812031442CDD0DD081542FE
:100DD000CAD16346D80853465B070E002C0018435F
:100DE000C2E76346D90853465A070A43DC0899E626
:100DF0006346D80853465A070E000243DC08A1E6B2
:100E0000110027002039CF40202A03D040218A1A20
:100E100094402043421E904105003D4351E60C00A2
:100E20000025002258E560446045924154445242F6
:100E30000500A4183AE753465A076346D9085346B3
:100E40000A43DC087EE61A001C002A4300D0ABE609
:100E5000C1E620210025091A19E500220025014CD0
:100E60003AE5C046FF070000FFFF7FFFFE070000D6
:100E7000F0B5DE46454657464E46E0B587B000928F
:100E800001930B031B0B9B46CA0F4B0004008046CB
:100E90005B0D029200D16AE1D44A934200D18CE109
:100EA0005946420FC9000A43802109041143C20078
:100EB0009046CF4A894692469A44002300240393E1
:100EC000009E019F3B031B0B9B467B0030005B0D8C
:100ED000FD0F002B00D128E1C44A934200D177E1F5
:100EE0005946720FC9000A438021090411438B46F9
:100EF000BF49F2008C4651466344CB1A9A46002300
:100F0000029E6E400F2C27D8BA49A40009598F467B
:100F1000CB464246029E039B022B16D0032B00D1E8
:100F2000A6E2012B00D0DFE000220023002490463F
:100F30001B052343F60733434046190007B0F0BCB6
:100F4000BB46B246A946A046F0BD0022002490460A
:100F5000A64BEDE72E00DFE7CB4500D2D4E100D170
:100F6000CFE101235B429C46444648460027E244C9
:100F70005B46150E1B021D43190C2B041202009533
:100F80001D0C914602910395FFF760F902006A4338
:100F90000B04210C804619438A4209D9009D012384
:100FA000AC465B4261449C46E0448D4200D8FBE184
:100FB000881A0299FFF74AF9039A24044243090464
:100FC000240C03000C43A24206D90099013B8C4635
:100FD0006444A14200D8E1E1A01A424612041A4337
:100FE00093464B4659461B0C1D0004930B0449467F
:100FF0000904090C0C001B0C5C43120C6B43884663
:1010000051436A43250CAC465B186344994203D9AB
:10101000802149028C466244190C24041B04240CD0
:101020008A181C19904202D316D1A74214D25B46EB
:10103000009D013B4F4405934F459B41AC465B42AD
:101040006344C018854200D3A1E1824200D9F6E191
:1010500000D1F1E1059B9B463C1BA742BF41009D8F
:10106000801A7F42C01B854200D1D0E10299FFF770
:10107000EDF8039A0B044243210C070019438A42FE
:1010800000D978E1881A0299FFF7E0F8039A24045E
:1010900042430904240C03000C43A24200D95DE141
:1010A0004146A41A3A041A43049D13041B0C5943E5
:1010B00047466B439C46100C47430B0CBC446344AF
:1010C00068439F4203D980256D02AC4660441F0CE3
:1010D00009041B04090C3F185B18BC4200D202E152
:1010E00000D1FDE001231A43434B5344002B00DCA5
:1010F000AEE0510700D098E15946C90106D55946DE
:101100003E4B194080238B46DB0053443C498B42C5
:1011100000DD1AE75946D208490711435A465B05D4
:1011200054028846240B5B0D02E75A46009B1A4383
:1011300000D17EE05B46002B00D100E1584601F073
:1011400037FA020003000B3A1D27009EBA1A190055
:101150005846D64008398840320002439346009AE8
:101160008A40284953448A469A440023C8E65B468D
:101170000343994656D05B46002B00D1CDE058463C
:1011800001F016FA0B235B429C460200844466463B
:101190001D239B1B260011005846DE40083988405D
:1011A00033000343994623008B409846164B002496
:1011B0009B1A9A460023039382E65A4602439146BD
:1011C0002AD100229A46022390460824039377E608
:1011D0005A46009B1A430D4B9C46E244002A17D105
:1011E00002231C4300239B46023389E6FF070000CD
:1011F00001FCFFFF90780008FF030000FFFFFFFEE7
:10120000FE070000F30300000DFCFFFF01F8FFFFE5
:10121000032332001C4373E69A460323D9460C2469
:1012200003934DE6002398469A4601330424039322
:1012300046E601231C4300239B46013360E600235E
:10124000802498460026924B240371E601225242E4
:101250000121C91A382900DD66E61F2900DCABE050
:101260001F204042C31A5846D8400300202904D00A
:1012700058468849514488400243511E8A411A43C6
:10128000072319000024114013420CD00F231340F0
:10129000042B00D1F9E0111D91429B410A005B42F1
:1012A00059075B021C0BD2080A43904600233FE615
:1012B00080244B462403234209D05B46234206D1B7
:1012C0001C4324032E009046714B240B30E68024EF
:1012D0004B4624031C432403029E6D4B240B27E63C
:1012E000002B00D100E70098511E844664448442DC
:1012F00000D284E0BC4200D2AEE000D1C1E00A00DE
:10130000F0E6424500D92CE64B46DC075808434638
:101310005B081C434346DF072AE601F049F9152321
:101320009C4684440200634620321C2B00DC2EE7DE
:1013300023000838834099460023984636E701F099
:1013400037F902000300153220331C2A00DCFBE6CB
:1013500000990838814000228B4602E70099013B42
:101360008C466444A14200D99AE6A24200D897E68E
:10137000831E644494E6AC466144013F8D4200D92B
:1013800080E68A4200D87DE6871E61447AE685427F
:1013900000D05FE6B94500D95CE656E6A24200D827
:1013A0001AE6831E644417E68A4200D800E6AC467B
:1013B000831E98466144FBE5374814005044824040
:1013C0005B4617008340CC407A1E974123433B4342
:1013D0001A005B46CB40510709D00F211140042968
:1013E00005D0111D9142924152429B180A001902E8
:1013F00000D455E7002201230024904698E50A0016
:10140000BC4200D06EE64B4500D06BE66CE6234B49
:10141000234A5344924500DA18E7012149420A1D44
:101420008A42894149428B4466E60F2111400429D2
:1014300000D161E61100F2E7BC4200D80AE60223BF
:101440005B429C4600994F444F459B41E3448C4688
:101450005B426344C018FFE54946009D480048458B
:101460008941AC46494261448146023A6418C7E763
:1014700080245B4624031C4324039046044B240B26
:1014800056E59945E8D30A00BDE7002308E7C046C2
:10149000FF0700003E0400001E040000FF030000E0
:1014A00002FCFFFFF0B55746DE464E464546E0B526
:1014B0000D000400E80F83460903D80F090B82468C
:1014C00019488C461F0369005E00490D3F0B760DDD
:1014D000814218D086420FD00120B1420DD1BC45C7
:1014E0000BD1944209D1D3451CD0002905D16046C7
:1014F0002043431E984100E00120F0BCBB46B246A9
:10150000A946A046F0BD01208E42F6D1614639437E
:101510000F0017432743F0D15B465246981A431EEB
:101520009841EAE70020E8E7FF070000F0B55746DA
:101530004E464546DE46E0B50D000F03390B83B03D
:101540000400804601915800E90F314F400D8C4650
:101550006E00190382469146760D090BD80FBE42E4
:101560001FD0BA450FD0002E2FD15546019E3443CF
:10157000002D27D10A433AD0002C45D100281AD19A
:101580000120404217E011433BD1002E02D1019FC0
:101590002743F3D0844509D16346002BF0D0604641
:1015A00009E0019F27432CD1B24524D06346022095
:1015B000013B1840013803B0F0BCBB46B246A94617
:1015C000A046F0BD002CD9D0E4E75446002CEDD065
:1015D0008445EBD15645E9DCDEDB019B8B42E5D847
:1015E000DAD1C845E2D80020C845E4D2D4E70020CB
:1015F000002CE0D0DAE7114303D18445D6D1002096
:10160000D9E702204042D6E78445E6D0CEE7C0467F
:10161000FF070000F0B557464E464546DE46E0B5AA
:101620000D000F0304008046E80F390B844683B099
:101630005800304F400D01911E03690082469146CB
:10164000490D360BD80FB94220D0BA450FD000292A
:101650002BD101990C435146002937D1324338D060
:10166000002C44D1002819D10120404216E0164335
:1016700013D1002902D1019F2743F3D0844520D004
:1016800063460220013B1840013807E0019F2743D1
:1016900003D18A45F4D116431FD0022003B0F0BC19
:1016A000BB46B246A946A046F0BD5446002CE7D042
:1016B0008445E5D15145E3DC03DB019BB342DFD830
:1016C0000FD06346002BCFD06046E7E7002CC9D08F
:1016D000D4E70020002CE1D0D2E78445D0D100200F
:1016E000DCE7C845CCD80020C845D7D2E9E7844517
:1016F000E3D0C5E7FF070000F0B55746DE464E468B
:101700004546E0B51F000B031B0B16009A46CA0F97
:101710004B000400934687B05B0D00D1D5E0BB4A77
:10172000934200D1F8E05146420FC9000A4380219C
:1017300009041143C2009146B54A8A469D18002308
:10174000984602933C037B00FA0F3000240B5B0D9C
:10175000009200D196E0AD4A934231D0720FE4007E
:101760002243802424041443A94AF000944663448D
:101770005B195A1C0192424600260A2A42DC5A464C
:1017800000994A4093464246022A32DC013A012A35
:1017900000D949E1022E00D1CAE0012E3DD100233B
:1017A0000024002210005A461B052343D20713438E
:1017B000190007B0F0BCBB46B246A946A046F0BD32
:1017C000924B2643EB18002E00D1BBE0032241468A
:1017D00011435A46884600994A40802109018C46A7
:1017E00029006144019141460A2900DD33E2934614
:1017F0000326424601279740A6213A00C9000A4025
:101800000F4231D0029E022E00D135E2032E00D1CC
:10181000D2E154464846012EC1D0019A7D4B9446F0
:101820006344002B00DCC0E0420709D00F220240D5
:10183000042A05D0021D8242804140422418100033
:10184000E20106D5744B019A1C4080239446DB00CC
:101850006344724A93426BDC6207C00864025B0512
:101860000243240B5B0D9DE7902189000F4263D159
:1018700088223A4200D1D7E0009BA2469B4681468F
:101880000296BFE72300334300D17FE0002C00D154
:10189000ADE1200000F08CFE020003000B3A1D2099
:1018A0001900821A30000839D0408C4004433000BF
:1018B00088405B4AEB1A944663445A1C01924246A4
:1018C00000260A2A00DC5AE79CE753460343994660
:1018D00054D05346002B00D177E1504600F068FE0B
:1018E0000B235B429C460200844411005046083999
:1018F00088401D23804660461B1A2000D840030004
:10190000404603439A4623008B4099460023444DAA
:101910009846AD1A029315E752460243914626D1E6
:1019200000221D000223924608329046029309E7E6
:1019300000240022354B35E7002380249B462403F6
:10194000324B2FE702224146114380221201944676
:101950002A006244884601920A2900DD52E75A466D
:101960000020009904004A40934602260BE70C220F
:101970001D000323814690460293E3E600239A4626
:1019800004339846033B00250293DBE642460133CD
:101990001A432B0090465A1C019242460024002014
:1019A00001260A2A00DCEAE62CE70122D21A382AAC
:1019B00000DDF4E61F2A00DC2AE11F214942CB1A90
:1019C0002100D9400B00202A05D0164A019D9446DB
:1019D0006544AC402043421E904118430723190040
:1019E0000024014003420CD00F230340042B00D1FC
:1019F00040E1031D8342A441180064426107640270
:101A0000240BC20800230A43CCE6C046FF070000AF
:101A100001FCFFFFFF030000FFFFFFFEFE070000C9
:101A20000DFCFFFF3E04000049464A460904090C2C
:101A30000D00160C020C0004000C4543AC460500DA
:101A40007543A84615000F007543009202952A00C1
:101A5000009D6F4365462D0CA94647444F44B84549
:101A600005D91500802252029046454402953D0C4E
:101A7000039565462D043F042D0CAC463D0065449E
:101A80000495250C2404240CAC4625007543A84677
:101A900065460F006943414489466743390C494410
:101AA0006E43884503D980225202904646440D0C6D
:101AB000A846350045440595039D3F04A8463F0CC4
:101AC0000904C91988444546039555462E04360C29
:101AD0002F0C35004543784381463800A8462D0C2D
:101AE000AA46009A504372434A445244914503D94E
:101AF00080256D02A9464844150CA94645462D048B
:101B00002D0CA84665467D43120448449044A946DE
:101B10003200654662436E437C43170C3619BF1989
:101B2000BC4203D980246402A446E144029C039E83
:101B3000A446059D66448E428941AC4612043C048D
:101B4000120CA2186244494254184644A446464521
:101B5000A44182466442A046AA4292418C458941F2
:101B6000E244D044494252420A43A045A44182453E
:101B70008941644249420C4341463F0CD219121933
:101B8000CC0D049970020843411E884141464A44E5
:101B9000F60D52023043490214430843D20135D5B1
:101BA0000122430802401343E0071843640834E667
:101BB000009BA2469B4681468024534624031C4337
:101BC00024034A462E4B240BECE500F0F1FC1523D0
:101BD0009C4684440200634620321C2B00DC84E6D1
:101BE000002399462300083883409A468EE600F089
:101BF000DFFC02000300153220331C2A00DC4EE615
:101C000002003400083A0020944052E6019304E6B2
:101C10001C4B21009C460300019DD3406544A94014
:101C200019430300AB40581E834119430800D440B8
:101C30004B0709D00F230B40042B05D00B1D8B4203
:101C40008041404224181800230200D4D6E6012324
:101C500000240022A6E50F29AAD1802352461B03A7
:101C60001A42A9D01C42A7D11C43009B02009B46EC
:101C7000034B97E50024C1E60024014B220091E5C7
:101C8000FF0700001E040000F0B54E464546DE4644
:101C90005746E0B585B0009001910C034F00CE0F80
:101CA000610A009CB046640F0C4300997F0DC80088
:101CB00011001A001B039C460091019251004B0D2C
:101CC0009946019B009DD90F63466A0F5B0A134337
:101CD000EA0094469346C14A03900293914500D18D
:101CE000CDE0012569404D467D1BAA468E4200D1BC
:101CF00080E0002D00DC35E34946002900D1DFE01B
:101D0000974200D194E152460125382A19DC8022FD
:101D1000029B12041343029352461F2A00DDE3E1A3
:101D2000534620226146029DD21A9540D9400D4368
:101D3000614691400A00511E8A411543029ADA40D9
:101D4000A41A451BA84280414042241A230200D411
:101D50003DE16402640A002C00D147E1200000F05C
:101D600027FC0300083B20212800CA1AD0409C40D1
:101D700002009D4022439F4200DD77E1D81B0130E5
:101D8000091A2C008D40C4406B1E9D411300C240B7
:101D90008B402543002714001D436B0709D00F23F8
:101DA0002B40042B05D02B1DAB42AD416D42641975
:101DB0001D00230200D440E1884A0137974200D138
:101DC00001E1012643468649ED0821404A072A439E
:101DD0007C054D022D0B640D1E4024052C43F60797
:101DE00034431000210005B0F0BCBB46B246A94602
:101DF000A046F0BD002D00DCD0E24946002900D00D
:101E0000D4E06146029B194300D12BE1691E012DEC
:101E100000D1D9E1954200D10AE10125382917DC2A
:101E20008A4653461F2B00DDE7E12022D21A029B8F
:101E3000614693401D005346D940634693401A00C3
:101E40000D43511E8A4153461543029ADA40A418A5
:101E50002D188542804140422418230200D4B6E068
:101E60005E4B01379F4200D1ADE001215C4B6A0817
:101E70001C4029400A43E507154364088DE7594A89
:101E8000029B92466246BA441A432CD08E422ED010
:101E90005246002A60D0002F00D1DBE063460E00DE
:101EA000029CD80862070243E4081300234300D1D0
:101EB00054E280252D0325432D03484C2D0B8CE740
:101EC0006146029B194300D1CCE029000139012D64
:101ED00000D188E1954200D1AAE00125382900DD32
:101EE0002FE78A4618E7012251408E42D0D153464F
:101EF000002B00D1BEE0002F00D038E1CA462200FE
:101F0000024300D1E2E15346591E012B00D10DE2FC
:101F1000324A924500D1D2E10127382913DC1F292A
:101F200000DDEEE12022029B521A250007009A46AE
:101F3000CC4090409540CF40A244421E9041534631
:101F40002F43074302933D00654465459241029B40
:101F500052424F46D41880E7234A7D1C154200D0D8
:101F6000AAE062462500029B05431A43002F00D0D9
:101F7000F5E0002D00D16BE1002A00D152E163466B
:101F8000C51A029BE21AA8429B415B42D31A1A026D
:101F900000D4D5E163461D1AAC4592410126029B4F
:101FA00052421C1B8846A41A0E40F6E697423FD0C8
:101FB00052460125382A00DD4AE78022029B12049E
:101FC000134302932DE73C000025002205E7072379
:101FD0002B40002B00D0E2E66BE0C046FF0700007C
:101FE000FFFF7FFF01F8FFFFFE070000280000F061
:101FF000DFFA030018331F2B00DCB4E62A00083890
:1020000082409F4200DDB9E0DB1B581C1F2800DC2A
:10201000A0E115001F3BDD40202805D040231B1AFE
:102020009A40531E9A411543072300272B40D0E7BF
:10203000C00862070243E40837E7EA0863071A4367
:10204000D34BE4089F4200D12FE72403250B7C05E6
:10205000640DC2E6CA462200024358D163460E0010
:10206000029C0393039B5746DA08E7E7C94CFF1A23
:10207000144092E6C84D7A1C2A4200D084E0220027
:102080000243002F00D0EFE0002A00D1E5E06246D5
:1020900002990A4300D1C5E06346C5188C468542C3
:1020A0008041644440422418230202D5B94B0137D1
:1020B0001C40BA460395D5E76246851AA84292416C
:1020C00052429146029BE31A1A004B46D21A130061
:1020D00091461A026CD44A464C462A4300D03AE64E
:1020E00000260024002578E6029953460D00203A88
:1020F000D540202B06D04022D21A0B0093406246D6
:102100001A4393465B465A1E93411D4319E65346B4
:102110005A1E012B00D1C6E09D4EB24500D1BDE64E
:1021200088460E000125382A10DC1F2A7FDC20217A
:102130002500891A070088408D40D740D440411EB1
:102140008841029B3D431B1B054302936246551B7E
:10215000AC459241029B52424F469C1AF6E5002D37
:1021600000D0B7E0002A00D1F0E001260E4063461F
:102170000298D90842070A43C40896E6854CFF1A1C
:1021800014406207E40860E781498A4200D1C9E04F
:102190006346C11881428041029B4042E3181B18EC
:1021A000DD075C08072349080D4317002B4010E7A3
:1021B00063461D1AAC4592410126029B52421C1BEC
:1021C0008846A41A0E40C6E56346C518029B8542A0
:1021D00080419C464042644424180127230200D4D5
:1021E000F5E6022741E66346C51AA8428041029BF4
:1021F0004042E41A0127241AA8E5029D52462B000A
:10220000203AD34019005346202B06D04022D21A40
:102210002B00934062461A4393465D466B1E9D41D8
:102220000D4315E66207C0080243E4080DE71100FC
:1022300027002039CF40202A05D040218A1A944017
:10224000250005430395039D6A1E95413D437DE7A7
:10225000002A00D144E701260E406346D908029BBC
:102260005A070A43DC08F0E6002A28D06246029F9B
:10227000C0083A4300D1DCE6620710438022E4083C
:102280001203144209D0FD08154206D16346012607
:102290002C00D8087B0718430E40420FC000C0082E
:1022A0005207024301E663461D1AAC459241029B68
:1022B00052421C1B0E0088460127A41A46E56346BD
:1022C000D908029B5A070A43DC08EEE56346029CE4
:1022D0000393C7E6C008002A00D1AAE662071043AC
:1022E0008022E40812031442D7D0029FFD08154251
:1022F000D3D163460126D8087B072C0018430E4033
:10230000CBE70A002700203AD740202905D04022F9
:10231000521A9440250005430395039D6A1E95417A
:102320002F4310E614000025002256E5029B60446E
:102330009946604592414C4452420500A4184CE72E
:102340001A001C002A4300D0B3E6C9E68024002608
:102350002403AEE520210025091A17E500220025F7
:102360000B4C3AE5002D00D1F6E54B46DA1B9246C0
:10237000002F00D16FE6382A05DC8026360434436E
:1023800088460E00D1E688460E000125DEE6C046EE
:10239000FF070000FFFF7FFFFE070000002D00D1B8
:1023A00068E64B46D91B002F01D18A46A7E50127D5
:1023B000382900DDC7E5802212041443AFE5C0468A
:1023C000F0B5C6461E03360BB0460D4E0C034D004D
:1023D0005F0000B5240B6D0D7F0DB5420BD0084991
:1023E00000208F4204D1464616433000431E9841D8
:1023F00080BCB846F0BD04430120002CF8D1EEE7C4
:10240000FF0700000B00020070B5164D0C0382B0F0
:102410004900002000920193240B490DDE0FA942D0
:1024200004DD1148814203DD104BF01802B070BD8D
:102430008020400320430E4C641A1F2C08DD0D4BF6
:102440005B1AD84003005842002EEFD11800EDE788
:10245000094B009A9C46030061448B40E2401343C1
:10246000F1E7C046FE0300001D040000FFFFFF7FF0
:102470003304000013040000EDFBFFFF70B50028DB
:1024800016D0C317C5185D40C40F280000F090F89F
:10249000104B1B1A5B055B0D0A2814DC02002E0092
:1024A000153296400B22121AD5402D032D0B03E056
:1024B00000240023002500261B052B43E4072343AB
:1024C0003000190070BD0B3885402D0300262D0B00
:1024D000F2E7C0461E04000010B5041E10D000F044
:1024E00067F80E4B1B1A5B055B0D0A280FDC0B22ED
:1024F0002100121AD14015300A038440120B01E06A
:10250000002300221B0513432000190010BD2200E8
:102510000B38824012030024120BF3E71E04000064
:1025200070B542024300C40FFE201B0E591C550A11
:1025300008420CD0E02189008C466D07120B6344E1
:102540001B051343E40723432800190070BD002B2B
:1025500014D1002D1BD0280000F02AF80A281CDC1A
:102560000B232A001B1ADA40030015339D400E4B43
:1025700012031B1A5B05120B5B0DE1E7002D09D05E
:10258000130B802212031A436D07084BD8E7002370
:102590000022D5E70022054BD2E703002A000B3BBF
:1025A0009A400025E3E7C04689030000FF070000CA
:1025B0001C2101231B04984201D3000C10391B0A73
:1025C000984201D3000A08391B09984201D3000937
:1025D000043902A2105C40187047C046040302028E
:1025E00001010101000000000000000010B500F032
:1025F0003FF900F047F9FCE700B58DB01822002143
:1026000006A802F0A7FF14220021684602F0A2FFEC
:1026100002230593FE33089305A8C03B0A9300F0FC
:1026200085FD002801D072B6FEE7072301900290D5
:102630000390049001216846009300F0D3FE002827
:1026400001D072B6FEE70DB000BD0000F0B58BB052
:1026500000F038FBFFF7D0FF1422002105A802F09C
:1026600079FF042101250226584BA0205A6B002433
:102670000A435A635A6B03270A400092009A5A6B26
:102680001C310A435A635A6BC0050A400192019AF1
:102690005A6B18392A435A635A6B2A400292029A9B
:1026A0005A6B32435A635A6B32400392039A5A6B05
:1026B0000A435A635B6B2A000B4004930831049B66
:1026C00000F02EFD424B434805A905930697079459
:1026D00000F0EEFB0F23404805A9059306970794E9
:1026E00000F0E6FBA0203D4B05A9C0050593069729
:1026F000079400F0DDFBA020102305A9C005059379
:1027000006950795089600F0D3FB354B354805A98B
:1027100005930697079400F0CBFB0F23324805A9D9
:1027200005930697079400F0C3FB80232D4805A965
:1027300005930694079600F0BBFBA0209D3705A9E2
:10274000C005069505970794089400F0B1FBA020FA
:10275000402305A9C00505930694079600F0A8FB41
:10276000A02039002200C00500F0DAFC1F4D204BEC
:1027700028002B6096239B016B600C23AC60EC60FF
:102780002C616B61AC61EC612C626C62AC6201F03B
:102790000BFF0100A04201D072B6FEE7280002F054
:1027A00045F8011E01D072B6FEE7280002F05EF87F
:1027B000002801D072B6FEE7280002F019F80028C0
:1027C00001D072B6FEE7FFF711FFFEE700100240EE
:1027D000C0E0000000080050001400500C9F0000F2
:1027E0007FFF000000040050000C0050F0010020AA
:1027F0000038014072B6FEE70200010003008C3190
:10280000903212680868196822280CD160331B883E
:10281000486A184093B2002B04D0064B12021A40AB
:10282000104380B2704708238A69002013438B61EC
:10283000F8E7C04600FFFF0070B50400FFF7DCFFBB
:10284000094DC0B268732000FFF7D6FF2B685A1CF1
:102850002A6018702A7B6B7B9A4204D100230122E4
:102860006367024B1A7070BD840200203804002098
:1028700010B510220021024802F06CFE10BDC046C7
:1028800084020020F0B5002587B0FFF7F1FF4D4F1F
:102890004D4B32222900380004931D7002F05AFE7D
:1028A0000A234A4E4A4C37603373012231682000B4
:1028B00001F044FF474B4848636700F097F939003F
:1028C000464802F04FFE0700A84249D0444F390065
:1028D000280002F07DF8434BC0B2187019236B43F7
:1028E000414A9B180592039300282FD018003F49B6
:1028F00002F0CDFE01350437042DE8D13C4A3D4DB0
:1029000001923D4A3D4B3E4900922800059A02F053
:10291000B5FD00213B4F049B78223800197002F06E
:1029200019FE2900380002F0B2FE38007760FDF78A
:10293000EBFBB0607168B268200092B200F0BAFFA1
:10294000FA20C00000F052F907B0F0BD3868FFF778
:10295000E7FD02000B0003982B4902F08FFDC9E749
:10296000200000F087FF294B2000236096239B0165
:1029700063600C23A760E76027616361A761E7617B
:1029800027626762A76201F00FFE002801D0FFF7FF
:1029900031FF0021200001F049FF002801D0FFF79E
:1029A00029FF0021200001F061FF002801D0FFF77E
:1029B00021FF200001F01CFF0028C5D0FFF71AFFFF
:1029C000C2E7C046840300203804002084020020AF
:1029D000F00100203928000850C30000D07800081A
:1029E00074030020940200200D030020DB7800080F
:1029F00058030020950200203F03002026030020FA
:102A0000E4780008B6030020DF78000800380140B1
:102A10000122014B1A7070473804002001210A4B33
:102A200082B01A6C0A431A641A6C0A408021009220
:102A3000009ADA6B49050A43DA63DB6B0B400193BA
:102A4000019B02B07047C0460010024010B5040060
:102A50008EB01422002102A802F07CFD1C2200216D
:102A600007A802F077FD1B4B22689A4230D1012360
:102A700007A8079300F07CFD002801D0FFF7BAFEFD
:102A80008021154BC9011A6CA0200A431A641A6CE4
:102A900000240A4001210092009A5A6BC0050A43A3
:102AA0005A635B6B04940B400193019B03230293D5
:102AB000013B039302A902330693059400F0F8F951
:102AC0001B202200210000F01BF91B2000F042F91E
:102AD0000EB010BD0038014000100240094B0268E2
:102AE00010B59A420CD1A020074A0849136CC005C2
:102AF0000B401364032100F095FA1B2000F036F917
:102B000010BDC0460038014000100240FFBFFFFF6B
:102B1000FEE7FEE77047704710B500F0DFF810BD24
:102B200010B5024800F030FF10BDC046F001002093
:102B30000120704710B502F07DFD162303600120CF
:102B4000404210BD10B502F075FD16230360FEE78C
:102B500070B50E0014000025A54201DB200070BDF9
:102B600000E000BF70550135F6E770B50E001400A7
:102B70000025A54201DB200070BD705D00E000BFB4
:102B80000135F6E701204042704780239B01002079
:102B90004B60704701207047002070470B490C4A7A
:102BA0000300521A0B4910B50868002801D10A48E1
:102BB00008600868C318934206D902F03BFD0C2355
:102BC00003600120404210BD0B60FCE700040000E0
:102BD0000030002030040020900500208022024BAD
:102BE00012059A607047C04600ED00E070B5041E03
:102BF000094E03D13378012BFCD170BD00F07AF877
:102C0000064D28603378012BF7D000F073F82B685D
:102C1000C01AA042F6D3F0E73804002034040020A4
:102C20000D488546FFF7DAFF002103E00B4B5B58A8
:102C3000435004310A480B4B42189A42F6D30A4AD1
:102C400002E0002313600432084B9A42F9D302F0E9
:102C5000F7FCFFF7FBFCFEE700300020087D0008D2
:102C600000000020D4010020D40100208C050020A9
:102C7000FEE7000070B5104B05001978002901D15E
:102C8000012070BDFA208000FDF75AFA0B4C0100BC
:102C90002068FDF755FA00F079F8041EF0D1032DF5
:102CA000EED8020001202900404200F029F8044B30
:102CB00020001D60E5E7C046040000200000002061
:102CC0000800002010B50320FFF7D4FF041E03D135
:102CD000FFF7A4FE200010BD0124FBE7034A044BCC
:102CE00011681B785B1813607047C0463C040020D5
:102CF00004000020014B18687047C0463C040020C7
:102D000010B5FF2403220B0021000240D2009140A5
:102D10009B012340C943934000280ADBC0240B4A8F
:102D2000800880008018A40002590A401343035110
:102D300010BD0F2210400838054A80088000801816
:102D4000C26911401943C161F2E7C04600E100E0E9
:102D500000ED00E0002805DB1F2318401E3B8340E8
:102D6000014A13607047C04600E100E0002809DB1B
:102D70001F2318401E3B8340034AD367BFF34F8F86
:102D8000BFF36F8F7047C04604E100E08022431E0E
:102D90005204012093420DD2C021074A07485360D4
:102DA000036A09061B021B0A0B4303620020072368
:102DB000906013607047C04610E000E000ED00E056
:102DC000F0B5002808D0841DE37F411D022B05D0FB
:102DD0000423C3630023CB770120F0BD0E250268D6
:102DE000466C1368AB4313603368104D2B4033605F
:102DF000012316689E431660026C1B331A401B3B6E
:102E000093400B4E77683B437360C26C836C5A608F
:102E1000036D002B05D01A682A401A60436D826D3D
:102E20005A6001230020E377C877D6E7FFFEFFFF53
:102E300000000240F8B50123411DCB77841DE27FDD
:102E4000022A03D00422C2631800F8BD0E260268CD
:102E50001568B54315601568466C9D43156032686A
:102E6000114D2A403260026C104E15001C22154094
:102E7000AB4077683B437360C26C836C5A60036DF0
:102E8000002B06D01A68084D2A401A60436D826DE7
:102E90005A600123E3770023CB77836B002B00D0AC
:102EA00098470020D1E7C046FFFEFFFF0000024028
:102EB00000239C46F0B585B00B6864461A00E240DA
:102EC00001D105B0F0BD6246012696401A0032409D
:102ED0000192334200D194E04F6810233D009D439E
:102EE0000395022D14D16346DA0892008218136A02
:102EF00007241D0063461C400F23A400A3409D43EC
:102F000002950F250B692B40A340029C23431362BB
:102F100063465A00032393400468DD439C43032324
:102F20003B4093400295039D2343013D0360012DE7
:102F30000FD88468029B01251C40CB689340234333
:102F400083603B092B406546AB404468B443234350
:102F50004360032F55D0C468029B1C408B6893408C
:102F60002343C36080235B051F424AD063469A080F
:102F7000254B9200D218032463461C400F23E40023
:102F8000A340A026156EF6059D430023B04210D045
:102F90001E4E0133B0420CD01D4E0133B04208D05A
:102FA0001C4E0133B04204D01B4BC3185E1EB3410C
:102FB0000533A3402B431366184B019ADD6F019C28
:102FC000D2432C43FE0301D42C001440DC67144C84
:102FD000019DE36F1D43BE0301D413401D000A4B46
:102FE000E5671D68019C2C43FE0201D42C001440AF
:102FF0001C605C68019D2543BF0201D4144025007C
:103000005D6001239C4457E7001802400004005013
:1030100000080050000C005000ECFFAF0418024004
:1030200008180240F0B500220F0085B03B00D340E5
:1030300001D105B0F0BD012393401C0001933C4039
:103040001F4257D02C4B032591088900C9180F2324
:103050001540ED00AB400E6E02931E400396A02675
:103060000023F605B04213D0244B9C460123604553
:103070000ED0234B9C460223604509D0214B9C4631
:103080000323604504D0204BC3185E1EB3410533B3
:10309000AB40039DAB4212D11C4E174BF56FA543BD
:1030A000F5671B4EF56FA543F5671D68A5431D60C9
:1030B0005D68A5435D600B6E029CA3430B66032411
:1030C00051008C4007210F26114089008E40036873
:1030D000019923430360D3089B00C3181D6AB543BD
:1030E0001D628368A343836043688B434360C36866
:1030F000A343C360013299E7001802400004005066
:1031000000080050000C005000ECFFAF0418024013
:103110000818024000690840431E9841C0B2704739
:10312000002A01D0816170478162FCE7F8B5051E75
:1031300001D10120F8BD0368DB070DD42B689B0784
:103140004FD42B681B0700D5A4E004222B68134240
:1031500000D0CFE00020EDE73821854C4368A2681D
:103160000A40082A02D1002BE8D1E2E7802252026D
:10317000934211D1226813432360FFF7BBFD8027E0
:103180000600BF0223683B42D8D1FFF7B3FD801B86
:103190006428F7D90320CDE7A021C9028B4208D1CA
:1031A00080232168DB020B43236023681A432260DB
:1031B000E3E722686F490A40226022686E490A40AC
:1031C0002260002BD9D1FFF795FD80270600BF02B2
:1031D00023683B42B2D0FFF78DFD801B6428F7D9EE
:1031E000D8E73822624CEB68A16811421CD1002B51
:1031F0009FD062686B6961491B020A401343636098
:1032000023685F4A5F4913402A6913432360236898
:103210005D4A9B045B0FDA405C4B0A601868FFF75D
:1032200029FD00288DD084E7002B20D02368544A44
:10323000802713402A69FF001343236080232268FC
:103240005B0013432360FFF755FD060023683B42F4
:1032500007D062686B6949491B020A4013436360E7
:103260006FE7FFF747FD801B0228EFD992E723683D
:10327000474A802713402360FFF73CFD0600FF000C
:1032800023683B4200D15CE7FFF734FD801B022836
:10329000F6D97FE73821364CAA69A3680B40182B72
:1032A00003D1002A00D050E743E70123002A10D0C1
:1032B000226E022713432366FFF71CFD0600236ED0
:1032C0003B4200D041E7FFF715FD801B0228F6D9ED
:1032D00060E7226E02279A432266FFF70BFD060085
:1032E000236E3B4200D130E7FFF704FD801B02282C
:1032F000F6D94FE738211E4CA868A3680B40202B55
:1033000003D143425841C0B214E7E36D012810D104
:103310000343E365FFF7EEFC02260500E36D33424D
:1033200000D017E7FFF7E6FC1A4B401B9842F5D98F
:1033300030E7052805D11343E3650123E26D13430C
:10334000E7E701218B43E365E36D9343E3650028E1
:10335000E0D1FFF7CFFC02260500E36D334200D138
:10336000F8E6FFF7C7FC0B4B401B9842F5D911E775
:1033700000100240FFFFFEFFFFFFFBFFFF80FFFF8B
:10338000FFC7FFFF00000020006CDC0208000020E7
:10339000FFFEFFFF8813000038220F4B996811428F
:1033A00005D11B680D489B045B0FD8407047996896
:1033B000114008290BD099681140202909D09B6839
:1033C00000201340182BF1D1FA20C001EEE7044889
:1033D000ECE780200002E9E700100240006CDC020C
:1033E00000127A00F7B504000D00002801D1012079
:1033F000FEBD07274B4E33683B408B422AD32268E1
:1034000093073BD4D2074AD4072733683B40AB42EB
:103410000AD93368BB432B433360FFF76BFC019041
:1034200033683B40AB426DD123683F4D5B0771D49D
:10343000FFF7B2FFAB683D491B051B0F9B005B58B4
:103440001F210B40D8403A4A3A4B10601868FFF7EA
:1034500011FCCDE73368BB430B433360FFF74AFCF5
:10346000019033683B40AB42C9D0FFF743FC019B5E
:10347000C01A314B9842F4D90320B9E72A495307BF
:1034800006D588682D4B1840B0231B0103438B6081
:103490008B682B480340E06803438B60B2E71C2233
:1034A000214F3B689343A26813433B606268012A43
:1034B00019D13B689B039AD50721BB688B43134303
:1034C000BB60FFF717FC01903823BA681A406368A5
:1034D000DB009A4298D0FFF70DFC019BC01A164BF7
:1034E0009842F1D9C8E7002A03D13B685B05E3D4D1
:1034F0007DE70223032A03D1396E1942DCD176E736
:10350000F96DFAE7FFF7F6FB019BC01A0A4B9842E8
:1035100086D9B1E7AB680B4A134022691343AB600D
:1035200086E7C046002002400010024024790008CF
:10353000000000200800002088130000FF84FFFF27
:10354000FFF0FFFFFF8FFFFF064B07499B68074A0D
:103550005B045B0F9B005B581F2110680B40D84039
:103560007047C046001002400479000800000020A7
:103570000368F7B5050000209B0323D58022394C52
:103580005205E36B0700134207D1E36B0137134386
:10359000E363E36B13400193019BE16DC0220800DC
:1035A0009200AB69104011423BD10020E36D2E4ADE
:1035B0001340AA691343E365012F03D1E36B2B4A40
:1035C0001340E3632A68D30706D5032425494B6DCE
:1035D000A343AC6823434B65530606D52149244CCD
:1035E0004B6D2340EC6823434B65530406D51D49BE
:1035F0006C694B6D9B009B0823434B65130506D5F7
:1036000018491C4C4B6D23402C6923434B65002A01
:1036100006DAE021134A13688B4369680B43136091
:10362000FEBD98420CD0E36D0F4AE16D134080223D
:1036300052020A43E265E26D0F490A40E265E36522
:10364000DB07B2D5FFF756FB06000222E36D1342FB
:10365000ABD1FFF74FFB094B801B9842F5D90320F4
:10366000AAE7C04600100240FFFCFFFFFFFFFFEF8C
:10367000FFCFFFFFFF3FFFFFFFFFFEFF88130000AC
:1036800030B5EFF31084012282F310880168134DE6
:103690000B682B400B6084F31088EFF3108182F3EA
:1036A000108802680E4C93682340936081F3108861
:1036B000C36E012B0AD1EFF3108183F3108810241D
:1036C00002681368A343136081F31088030020226B
:1036D0008C331A600023C366436730BDDFFEFFFFF3
:1036E000FEFFFFEF30B5EFF31084012282F3108864
:1036F000802501680B68AB430B6084F31088EFF3FF
:10370000108182F31088402302681068034313601D
:1037100081F3108830BD030088331B6810B5212B5E
:1037200006D1020056321388002B02D1FFF7DAFFD0
:1037300010BD036D01681C7801338C62036513882A
:10374000013B9BB21380F3E7030088331B6810B57D
:10375000212B06D1010056310B88002B02D1FFF737
:10376000C1FF10BD026D046813880232DB05DB0D5A
:10377000A36202650B88013B9BB20B80F1E700005E
:10378000030088331B6870B5212B21D10300010091
:1037900080246A331B885631002B19D00A88002AEE
:1037A00017D1EFF31084013282F310880168114DB4
:1037B0008B682B408B6084F31088EFF3108182F3C9
:1037C00010884023026810680343136081F3108857
:1037D00070BD0568EA69224208D0026D1678013290
:1037E000AE6202650A88013A92B20A80013B9BB23E
:1037F000D2E7C046FFFF7FFF030088331B6870B528
:10380000212B21D10300010080246A331B8856310B
:10381000002B19D00A88002A17D1EFF31084013247
:1038200082F310880168124D8B682B408B6084F303
:103830001088EFF3108182F310884023026810682B
:103840000343136081F3108870BD0668F269224259
:103850000AD0056D2A880235D205D20DB2620565FF
:103860000A88013A92B20A80013B9BB2D0E7C04677
:10387000FFFF7FFF70B505000120002D19D02E003D
:1038800024230024883633602B681A6882431A6028
:1038900028001C605C609C60FFF720F92B00200072
:1038A00090331C60043B34601C60EC662C678435EC
:1038B0002C7070BD30B5050088352C6803000220DF
:1038C000202C37D10138002934D0002A32D0802072
:1038D0009C684001844205D11869002802D101305A
:1038E000014227D11965190054310A804A801A0013
:1038F000002190321160212280212A608022586E9E
:1039000092054901904216D1144A8C4203D119699B
:10391000002900D1124A9A67EFF31081012282F345
:1039200010881A68802390681B040343936081F316
:103930001088002030BD0B4A8C4203D11969002940
:1039400000D1094A9A67EFF31081012282F31088AF
:103950001A688023106803431360E8E78137000882
:10396000F9370008173700084937000870477047D3
:10397000806A0023020010B55E321380083A13807B
:10398000FFF7F5FF10BD7047F7B50168C14DCB6972
:1039900004000A6888682B4210D120252B4200D1F0
:1039A0009BE08026760515400640354300D194E023
:1039B000636F2000002B00D085E085E0B64D054008
:1039C0000095B64D009E1540354300D185E0250099
:1039D00001269035334205D0D70503D50E622F68F6
:1039E0003E432E60022633420CD0C7070AD527007B
:1039F0000E6290373E680197B446042667463E4300
:103A0000019F3E60042633420CD0C7070AD5270029
:103A10000E6290373E680197B446022667463E43E1
:103A2000019F3E600826B446334209D02027009EFD
:103A30001740374304D066460E622F683E432E601F
:103A400080263601334206D0570104D50E6220216C
:103A50002E68314329602968002935D020210B4286
:103A60000AD080235B0511400340194304D0636FE3
:103A7000002B01D02000984722682B6840279668C9
:103A800028223E40134020001E4322D0FFF7F8FDBD
:103A900023689B683B4218D0EFF31081012383F326
:103AA0001088250004CD9368BB43936081F3108890
:103AB000E86F002809D07A4B8363FFF7BBF9002831
:103AC00002D0E86F836B9847F7BD2000FFF74FFFE8
:103AD000FAE7FFF74CFF2E60F6E7E56E012D00D008
:103AE0009FE01026334200D19BE0324200D198E0A3
:103AF0000E62896840230A001A40194257D0211DDE
:103B0000CA6F1068426892B2002ADDD027005C3785
:103B10003F889742D8D927005E373A800268202034
:103B20008446104000906046024232D1EFF3108785
:103B300085F3108820685B4E02683240026087F38C
:103B40001088EFF3108785F3108820688268AA43F5
:103B5000826087F31088EFF3108785F31088206860
:103B600082689A43826087F31088230062468C3310
:103B70001A60009BE366EFF3108085F310882268DB
:103B80000F351368AB43136080F31088C86FFFF7DD
:103B900017F902232200236723005C325E331B885F
:103BA0001188C91A89B22000FFF7EDFE8CE72300C7
:103BB00020005C335E301988038800889BB200289F
:103BC00000D181E7C91A89B2002900D17CE7EFF35F
:103BD000108785F310882068334E036833400360F4
:103BE00087F31088EFF3108785F3108820682F4E35
:103BF00083683340836087F31088230020208C3350
:103C00001860E2666267EFF3108085F31088102574
:103C100022681368AB43136080F310880223236784
:103C2000C1E780256D032B4206D0460204D5200053
:103C30000D6200F0D9FD47E780210B4207D08025B7
:103C40002D0411402840014301D0A36FB1E640216B
:103C50000B4216D00A4214D0EFF31080012383F3F5
:103C60001088226813688B43136080F31088230048
:103C7000202288331A6000232000A367FEF7C8FEC5
:103C800022E7190214D5510012D5200000F0AEFD34
:103C90001AE7C0460F0800000100001020010004D0
:103CA00071390008FFFEFFFFDFFEFFFFFEFFFFEFA1
:103CB000DB0100D408E7002A00DB05E7200000F064
:103CC00094FD01E70100F8B503008C310C68603306
:103CD0001A880368222C57D15B6A846D1340020056
:103CE0002370836D5E32013383651388013B9BB281
:103CF000138013889CB2002B42D1EFF3108601335E
:103D000083F310880568234F2A683A402A6086F3B7
:103D10001088EFF3108683F310880568AA689A4329
:103D2000AA6086F3108820220A600268046752683D
:103D3000446712020AD5EFF3108183F310880268FA
:103D4000154C13682340136081F31088C36E012B58
:103D500017D10022C266EFF3108483F31088016844
:103D60000F330A689A430A6084F310880268D169A5
:103D7000194200D0136203005C331988FFF703FE79
:103D8000F8BDFFF7F3FDFBE7082299690A439A6142
:103D9000F6E7C046DFFEFFFFFFFFFFFB0200F8B5BE
:103DA00003008C32116860331C880368222956D1C5
:103DB000596A836D214019800100023383655E31A9
:103DC0000B88013B9BB20B800B889CB2002B42D12D
:103DD000EFF31086013383F310880568224F2968BA
:103DE0003940296086F31088EFF3108683F310883A
:103DF0000568A9689943A96086F31088202111609D
:103E0000026804675268446712020AD5EFF3108112
:103E100083F310880268154C13682340136081F304
:103E20001088C36E012B17D10022C266EFF31084F5
:103E300083F3108801680F330A689A430A6084F399
:103E400010880268D169194200D0136203005C3304
:103E50001988FFF798FDF8BDFFF788FDFBE70822FA
:103E600099690A439A61F6E7DFFEFFFFFFFFFFFB58
:103E70000300F0B560331B8885B00293036804002B
:103E8000DD691A6803929A68019202008C32126806
:103E9000222A00D0C2E0030068331B88002B02D026
:103EA00020231D4225D123005E331B889AB2002BAC
:103EB0001DD0230068331B88934218D9EFF310807C
:103EC000012282F310882168574D8B682B408B604C
:103ED00080F31088554B6367EFF3108182F31088ED
:103EE0002023226810680343136081F3108805B013
:103EF000F0BD2600236802995B6AA26D0B40137027
:103F0000A36D5E360133A36533882268013B9BB203
:103F100033800723D5691D422FD0063B1D4208D0B0
:103F20000399C90505D52100136290310868034340
:103F30000B6002231D4209D00199C90706D5210053
:103F4000136290310868DB1803430B6004231D42A1
:103F500009D00199C90706D5136222009032116871
:103F6000023B0B431360270090373B68002B04D0C3
:103F70002000FFF7FCFC00233B60338899B2002B44
:103F800000D08DE7EFF31086013383F310882068AB
:103F9000274F02683A40026086F31088EFF31086DC
:103FA00083F310882068234F82683A40826086F34A
:103FB0001088220020208C3210602268216752680D
:103FC000616712020AD5EFF3108183F3108822682B
:103FD000194813680340136081F31088E36E012BC6
:103FE00018D10022E266EFF3108083F31088216875
:103FF0000F330A689A430A6080F310882268D169F7
:10400000194200D0136223005C3320001988FFF7A7
:10401000BAFC45E72000FFF7A9FC41E708229969AF
:104020000A439A6163E7C046FFFFFFEFC53C000803
:10403000FFFEFFFFFEFFFFEFFFFFFFFB0300F0B5FA
:1040400060331B8885B0029303680400DD691A6839
:1040500003929A68019202008C321268222A00D0E0
:10406000C0E0030068331B88002B02D020231D42D0
:1040700025D123005E331B889AB2002B1DD023006C
:1040800068331B88934218D9EFF31080012282F322
:1040900010882168564D8B682B408B6080F3108808
:1040A000544B6367EFF3108182F31088202322685A
:1040B00010680343136081F3108805B0F0BD26003B
:1040C00023680298596AA26D014011800232A265EC
:1040D0005E363288013A92B232800722DD6915429B
:1040E0002FD0063A154208D00399C90505D52100FD
:1040F0001A629031086802430A600222154209D010
:104100000199C90706D521001A62903108689218F2
:1041100002430A600422154209D00199C90706D555
:104120001A6222000223903211680B4313602700A9
:1041300090373B68002B04D02000FFF718FC0023C9
:104140003B60338899B2002B00D08FE7EFF31086E5
:10415000013383F310882068274F02683A400260D9
:1041600086F31088EFF3108683F310882068234FBE
:1041700082683A40826086F31088220020208C32C8
:104180001060226821675268616712020AD5EFF356
:10419000108183F310882268194813680340136064
:1041A00081F31088E36E012B18D10022E266EFF351
:1041B000108083F3108821680F330A689A430A60DD
:1041C00080F310882268D169194200D0136223005D
:1041D0005C3320001988FFF7D6FB47E72000FFF784
:1041E000C5FB43E7082299690A439A6165E7C0461F
:1041F000FFFFFFEF9D3D0008FFFEFFFFFEFFFFEF0B
:10420000FFFFFFFB70B504002569A168036829431F
:104210006569C26929431868504D1143284001431C
:10422000196059684E48256A0140E06801435960A9
:10423000A169986829434B4D284001430F2099609C
:10424000D96A8143606A0143D96247498B4215D1DB
:104250000321464B5B6D0B40013B022B6FD8444959
:10426000C85C80231B029A4237D1082865D8FBF727
:1042700053FF6A640B643164646414003D495B1845
:10428000591E8B411801ECE7384B3B481968090669
:10429000490F0131FBF754FF0200616A374B4900B7
:1042A0001000C95AFBF74CFF656840006B08C01846
:1042B0002900FBF745FF0200314B103A9A423CD8E7
:1042C0000F23020000079A4393B2400F2268034372
:1042D000D3603CE0FFF760F837E008282DD8FBF703
:1042E0001BFF052C0A2C262C2C2C2900FFF72CF95F
:1042F00000282CD007E01D4B1F4819680906490FFC
:104300000131FBF71DFF626A1C4B5200D15AFBF7CB
:1043100017FF65686B08C0182900FBF711FF020042
:10432000174B103A9A4208D82368D8600FE0FFF77D
:1043300033F8DDE780200002E5E7012008E0802374
:104340001B029A42D2D1FFF7FFF8021EA5D100202E
:104350000C4BA36600236367A36770BDF369FFCFAF
:10436000FFCFFFFFFFF4FF110038014000100240B3
:104370006479000800BCFFBF006CDC0268790008AB
:10438000EFFF000001000100836A30B51A0706D56F
:104390000168284C4A682240846B22434A60DA074D
:1043A00006D50168244C4A682240C46A22434A6008
:1043B0009A0706D50168214C4A682240046B2243C3
:1043C0004A605A0706D501681D4C4A682240446B72
:1043D00022434A60DA0606D501681A4C8A682240F0
:1043E000C46B22438A609A0606D50168164C8A6817
:1043F0002240046C22438A605A0610D50168134D8E
:104400004A68446C2A4022434A6080225203944204
:1044100005D14A680E4C2240846C22434A601B0638
:1044200006D502680B4953680B40C16C0B435360BF
:1044300030BDC046FF7FFFFFFFFFFDFFFFFFFEFF18
:10444000FFFFFBFFFFEFFFFFFFDFFFFFFFFFEFFFC0
:10445000FFFF9FFFFFFFF7FFF7B504000D001700F8
:1044600000932268D3692B405B1B59424B41BB42EE
:1044700001D0002021E0089B0133F3D0FEF73AFC85
:10448000009BC01A089B984228D8002B26D023688E
:104490001A685207E5D5DA69082611003140019102
:1044A00032420BD020001E62FFF7EAF8230090335F
:1044B0001E600023012084342370FEBD8022D96950
:1044C00012011142CDD01A622000FFF7D9F8230063
:1044D000202290331A60019B843423700320ECE780
:1044E000030073B50026040090331E60FEF702FC43
:1044F000236805001B681B071FD58021284B32004D
:104500000093890303002000FFF7A6FFB04214D0F8
:10451000EFF31081012383F3108880202268136851
:104520008343136081F310882300202288331A60AC
:10453000032000238434237076BD260023688C3644
:104540001B685B0723D58021154B002200932000B8
:104550002B00C903FFF780FF002818D0EFF310806D
:10456000012282F3108821680E4D0B682B400B60EE
:1045700080F31088EFF3108082F3108821688B6835
:1045800093438B6080F3108820233360D0E72300AF
:104590002022002088331A603260E0662067C8E776
:1045A000FFFFFF01DFFEFFFF70B5041E01D10120F8
:1045B00070BD050088352B68002B04D102008432C1
:1045C0001370FEF743FA2423012122682B6013683D
:1045D0008B431360A36A002B02D02000FFF7D4FEA8
:1045E0002000FFF70FFE0128E1D0236807495A6831
:1045F00020000A402A215A609A688A439A60012260
:1046000019680A431A60FFF76BFFD1E7FFB7FFFF96
:1046100003005C3370B5816580241A805A800023C2
:10462000816843676401A1424ED10369591E8B41E1
:10463000FF215B428B433C495B18010060310B80DA
:1046400003000021903319602231043B1960EFF31D
:104650001084012383F3108801688D682B438B60DD
:1046600084F3108880258021466E84680369AD0537
:104670004901AE423AD1050068352D88954235D8BA
:104680002A4A8C4202D1002B00D1294A4267002BD2
:104690000BD0EFF31081012383F310880268FF33FE
:1046A00014682343136081F31088EFF31081012312
:1046B00083F31088802302685B059068034393604E
:1046C00081F31088002070BD002905D101697F2386
:1046D0000029B2D18033B0E780246405A142ACD177
:1046E00001693F230029A8D14033A6E7114A8C4233
:1046F00002D1002B00D1104A42670122002B0AD0C0
:10470000EFF3108182F31088902302685B00106839
:1047100003431360D4E7EFF3108182F3108802683B
:1047200020231068F4E7C046FF010000713E000836
:104730003D400008C53C00089D3D000803008C304A
:1047400070B504680220202C25D10138002922D020
:10475000002A20D080209C684001844205D118693D
:10476000002802D10130014215D10020D866186816
:10477000406800020CD5EFF31085012080F310880B
:1047800080201C68C00426683043206085F31088B0
:104790001800FFF73DFF70BDF7B50700436E04003A
:1047A0006A37002B04D10120388068342080F7BD9F
:1047B00003680B4E9A689B680A4D5B0FF05CE95CDE
:1047C000C0000192FBF746FD019B38801B015B0F87
:1047D000F05CE95CC000FBF73DFD80B2E5E7C04658
:1047E000887900088079000870477047704700009A
:1047F00070B504008434227803000220012A11D00D
:104800001D002422012688352A601A681168106864
:10481000B043106004480140002058662023116016
:104820002B60207070BDC046FFFFFFDFF8B50500AC
:1048300084350B0029780222012915D006000121B8
:104840000468883622323260276822688A432260F0
:10485000A168C900C9081943A160FFF79DFF202383
:104860000022276033602A701000F8BDF8B50500FB
:1048700084350A0029780223012915D00600012178
:104880000468883622333360276823688B432360AB
:10489000A168064B19401143A160FFF77DFF20235B
:1048A0002760336000232B701800F8BDFFFFFFF175
:1048B0000200A02010B52021C005FEF731FC10BD7C
:1048C0000200A02010B58021C005FEF729FC10BD14
:1048D00010B50020FFF7ECFF0020FFF7F1FFA0204C
:1048E00001221021C005FEF71BFC10BD10B50020F1
:1048F000FFF7DEFF0020FFF7E3FFA02000221021DA
:10490000C005FEF70DFC10BDF7B504007D252401A0
:104910006D42254301910824FFF7E8FF8026012717
:10492000EDB2300028402E4200D03800FFF7C8FF1B
:10493000C046C0463800FFF7BBFFC046C046C04671
:104940000020013CFFF7B4FF7608002CE9D12000DD
:10495000FFF7B6FFC046C04680211C48FEF7DAFBD1
:104960000125A8422ED12800FFF7A2FFC046C0466D
:10497000C0462000FFF79CFFC046C0468021134878
:10498000FEF7C8FB6D1900281CD18026A0270E3524
:104990003602FF0540213800FEF7BCFB002800D09E
:1049A00034430120FFF784FFC046C046C0460020C4
:1049B000FFF77EFFC046C046013D7608002DE9D1D5
:1049C000019B1C80FFF784FF2800FEBD00040050FF
:1049D000F7B56B460E00991D0500FFF795FF6B4676
:1049E0002800991DFFF790FF041E1BD16B4628007D
:1049F000991DFFF789FF041E14D16B462800991DED
:104A0000DF88FFF781FF041E0CD16B46D888C019E0
:104A10004008FBF787FE0449FBF746FD0349FBF717
:104A200043FD30602000FEBD000020380000204122
:104A3000F0B51F00002316008BB09F4204DA8021DE
:104A400009067B181F002D23129A149D1370202332
:104A500003229D43462D07D02B00453B59424B4135
:104A60001099013ACB18109309AB049308AB039348
:104A7000139B00920293109B320001933B0000F0C5
:104A8000A7FE0400472D1BD1119BDB0711D5109BFE
:104A9000C31807930022002330003900FBF7D6FC2F
:104AA000002801D0079B09933022099B07998B426C
:104AB00020D32000099B159A1B1B13600BB0F0BD7F
:104AC000109BC3180793462DE4D10378302B0CD1EB
:104AD0000022002330003900FBF7B8FC002804D185
:104AE0000123109A9B1A139A1360139B079A1B6851
:104AF000D318CEE7591C09911A70D6E7F0B52B23CD
:104B000005000C0085B00270002901DA4C42023326
:104B10006B70092C2CDD02ABDE1D20000A21FBF797
:104B20007FFC37003031013E200031700A210194B2
:104B3000FBF790FB019B0400632BEEDCBA1EA81C64
:104B4000010013003034147002AC07349C420AD8C0
:104B50000023A24203D8093302AA9B18DB1BC0180A
:104B6000401B05B0F0BD1C7801330C700131EBE740
:104B70003023E418AB70281DEC70F1E7F0B597B066
:104B80000D000A921C9C0B93099000F001FD036834
:104B900018000D93FBF7B8FA00230F9014932B7EA7
:104BA00007220C932B680E930E992368C90545D5EF
:104BB0009B1893431A000832226001221E685F6826
:104BC0007B005B0811931096AE64EF641098119906
:104BD000A74B5242FDF7F4FB002831D110981199F0
:104BE0000122A34B5242FBF741FC002828D10022AE
:104BF000002330003900FBF72FFC002803D02B00E6
:104C00002D2243331A700C9B9A4F472B00D99A4F91
:104C1000032300240E9A2B6101339A432A600B9BD5
:104C20002900009309980A9B15AA00F0E5F90130C4
:104C300000D09FE00120404217B0F0BD0733B8E735
:104C400032003B0030003900FDF7BAFB00280BD0E2
:104C5000002F03DA2B002D2243331A700C9B874F51
:104C6000472BD5D9864FD3E720220C9C6B68944301
:104C70005A1C46D107336B6080230E9ADB00134326
:104C800000222B60069214AA05920C9A0AA904929B
:104C900013AA039223225218029201936B683200E6
:104CA000009309983B00FFF7C3FE139A0700472CB7
:104CB0002DD1D31C02DB6B689A4248DD0C9B139903
:104CC000023BDBB20C9328000C9A0139503013914F
:104CD000FFF714FF149A040013182B61012A02DC59
:104CE0002A68D20701D501332B6123230AAA9B1816
:104CF0001B78002B00D192E72B002D2243331A7032
:104D00008DE7472CB8D1002BB6D10133B3E70C9B0C
:104D10001100652BD7D90C9B662B1AD16B68002A22
:104D200009DD2A61002B02D12968C9070BD501339F
:104D30009B182B6107E0002B03D101222968114247
:104D400000D09A1C2A61139B0024AB65CDE7672332
:104D50000C931399149B994206DB2B682961DB079E
:104D6000F1D501312961EEE701220029E0DC92183A
:104D7000521ADDE72A68530508D42B693A000A99CC
:104D800009980B9CA047013029D153E70C9B652B58
:104D900000D8DAE0A86CE96C00220023FBF756FB90
:104DA000002833D00123374A0A9909980B9CA04761
:104DB000013000D13EE7149E139BB34202DB2B6807
:104DC000DB070CD50B9C0F9B0D9A0A990998A047FD
:104DD0000024013000D12DE7731EA3420ADC2B68AA
:104DE0009B0700D505E1159BE868984200DB23E7A7
:104DF000180021E72A0001230A9909980B9F1A320B
:104E0000B847013000D115E70134E5E7139B002BCB
:104E10003ADC01231B4A0A9909980B9CA0470130F0
:104E200000D107E7149E139B334302D12B68DB07A5
:104E3000D5D50F9B0D9A0A9909980B9CA047002382
:104E4000013000D1F6E60C93139B0C9A5B4293421F
:104E500001DC330092E72A0001230A9909980B9C90
:104E60001A32A047013000D1E4E60C9B0133EAE797
:104E7000FFFFEF7F90790008947900089879000887
:104E80009C790008A0790008149BAE6D0C939E429B
:104E900000DD1E00002E31DCF3430024DB1733401D
:104EA0000E93AE6D0E9BF31AA34230DC139B0C9A4B
:104EB0009A4238DC2B68DB0735D4139C0C9B0C9A88
:104EC0009B1B141B9C4200DD1C00002C34DCE343C4
:104ED0000026DB171C40139B0C9AD31A1B1BB342F2
:104EE00000DC7CE72A0001230A9909980B9F1A32FB
:104EF000B847013000D19DE60136ECE733003A00B7
:104F00000A9909980B9CA0470130C5D192E62A0066
:104F100001230A9909980B9E1A32B047013000D13B
:104F200088E60134BDE70F9B0D9A0A9909980B9CFE
:104F3000A0470130C1D17DE6BA1923000A9909982A
:104F40000B9EB0470130C2D174E6149B0C93012B29
:104F500002DC01231A4239D001233A000A99099848
:104F60000B9EB047013000D164E60F9B0D9A0A9961
:104F700009980B9EB047013000D15BE6A86CE96C44
:104F80000C9B0022013B0C930023FBF75FFA0028E7
:104F90001AD10C9B7A1C0A9909980B9EB0470130D4
:104FA0000ED147E62A0001230A9909980B9F1A326D
:104FB000B847013000D13DE601360C9B9E42F1DB43
:104FC0002A0023005032DAE60026F6E73A00E2E74C
:104FD0002A0001230A9909980B9E1932B047013023
:104FE00000D127E60134EB68159A9B1AA342EFDC47
:104FF000F9E60024F7E7C046F7B5160001938A6882
:105000000B690C000090934200DA13002200336019
:1050100043321278002A01D00133336023689B06A3
:1050200002D53368023333602268062315001D4021
:105030001A4227D0230043331B785A1E934122681B
:10504000920630D4220001990098089D4332A84767
:10505000013025D00622236800251340042B05D1FA
:105060003368E568ED1AEB43DB171D40A36822693E
:10507000934201DD9B1AED180026B54220D1002095
:1050800010E00135E36832689B1AAB42D2DD2200A2
:10509000012301990098089F1932B8470130F0D1D7
:1050A00001204042FEBD3020E1184331087021004C
:1050B0005A1C45310978A218433202331170C1E7F6
:1050C0002200012301990098089F1A32B847013045
:1050D000E6D00136D1E70000F0B58BB006920A00A9
:1050E00043320793059003920A7E0C00109B782AA6
:1050F00009D8622A0BD8002A00D1BCE07B49049170
:10510000582A00D190E0250042352A7022E0100094
:1051100063381528F7D8FBF709F816001F00F6FFCB
:10512000F6FFF6FFF6FF1F00F6FFF6FFF6FFF6FFAD
:10513000A10036008000F6FFF6FFB200F6FF360051
:10514000F6FFF6FF840025001A684235111D19602C
:1051500013682B700123A0E018680968021D0D0672
:105160000BD506681A60002E03DA2D23039A7642C7
:1051700013705E4B0A27049318E006681A6049060C
:10518000F1D536B2EFE70868196840C9050602D4C0
:10519000400600D5B6B21960544B0A2704936F2A13
:1051A00000D1023F2300002243331A706368A360DA
:1051B000002B03DB042122688A432260002E02D1E7
:1051C000039D002B0CD0039D30003900FBF73EF807
:1051D000049B013D5B5C2B70330006009F42F3D9BA
:1051E000082F09D12368DB0706D5626823699A4234
:1051F00002DC3023013D2B70039B5B1B2361079B6B
:10520000210000930598069B09AAFFF7F5FE0130DF
:1052100048D1012040420BB0F0BD202209680A436A
:105220002260782232490491210045310A701968C0
:10523000226840C9100602D4500600D5B6B21960E3
:10524000D30702D5202313432360002E01D010275B
:10525000A8E72022236893432360F8E71A680D68C3
:10526000101D4969186013682E0601D5196002E007
:105270006D06FBD519800023039D2361BFE71A68E3
:10528000111D1960156800212800626800F007FAF6
:10529000002801D0401B6060636823610023039AEB
:1052A0001370ACE72A00236906990598079DA84763
:1052B0000130AED023689B0715D4099BE068984263
:1052C000A9DA1800A7E72200012306990598079E8E
:1052D0001932B04701309CD00135E368099A9B1A16
:1052E000AB42F0DCE9E70025F7E7C046A279000809
:1052F000B3790008002310B50400036043608360A5
:1053000081814366C2810361436183611900082280
:105310005C3000F01FF90B4B246263620A4BA362FE
:105320000A4BE3620A4B23630A4B9C4205D00A4BAB
:105330009C4202D0094B9C4203D12000583000F01F
:10534000A3F910BDBD540008E55400081D55000820
:105350004955000840040020A80400201005002042
:1053600010B5034A0349044800F06CF810BDC0466C
:105370000C000020D57000081C00002041680B4B79
:1053800010B50400994201D001F0A4FEA168084BB9
:10539000994202D0200001F09DFEE168054B994240
:1053A00002D0200001F096FE10BDC046400400204F
:1053B000A80400201005002010B5094B094A04215B
:1053C0001A6009480022FFF795FF012209210748CA
:1053D000FFF790FF022212210548FFF78BFF10BD57
:1053E000780500206153000840040020A804002034
:1053F0001005002010B5024800F047F910BDC04666
:105400008105002010B5024800F040F910BDC046EB
:105410008105002010B50400FFF7ECFF236A002B84
:1054200002D0FFF7EFFF10BD044B2362044B1B6853
:10543000002BF6D1FFF7C0FFF3E7C0467D5300080D
:1054400078050020F7B51400002600900191A568AA
:105450006768013F04D52468002CF8D13000FEBDF8
:10546000AB89012B08D90E22AB5E013304D0290091
:105470000098019B984706436835EAE70EB400B5EB
:105480000B499CB01DAB029006900791049109480E
:10549000094904CB0591006802A9019301F096FC2B
:1054A0000022029B1A701CB008BC03B01847C0460B
:1054B000FFFFFF7F180000200802FFFF70B50C00FF
:1054C0000E25495F00F08EF8002803DB636D1B1882
:1054D000636570BDA389024A1340A381F9E7C04602
:1054E000FFEFFFFFF8B51F008B8905000C001600C9
:1054F000DB0505D50E23C95E0022022300F05EF80D
:10550000A389054A28001340A38132000E23E15EDF
:105510003B0000F07BF8F8BDFFEFFFFF70B50C001B
:105520000E25495F00F04AF8A389421C03D1054AC1
:105530001340A38170BD802252011343A381606593
:10554000F8E7C046FFEFFFFF10B50E23C95E00F07D
:1055500023F810BD03008218934200D170471970E0
:105560000133F9E70A7830B5002A0CD130BD9A42F0
:1055700008D10123CC5C002CF8D0C55CA54201D138
:105580000133F7E701300378002BF0D11800EDE785
:105590000048704758010020002370B5064D0400F4
:1055A00008002B60FDF7EEFA431C03D12B68002B9B
:1055B00000D0236070BDC0467C05002070B504009B
:1055C000080011001A000023054D2B60FDF7E4FAD6
:1055D000431C03D12B68002B00D0236070BDC04654
:1055E0007C05002070B50400080011001A0000239B
:1055F000054D2B60FDF7ACFA431C03D12B68002B43
:1056000000D0236070BDC0467C05002070B504004A
:10561000080011001A000023054D2B60FDF7A5FAC4
:10562000431C03D12B68002B00D0236070BDC04603
:105630007C050020014B18687047C0461800002008
:1056400070B500260C4C0D4D641BA410A64209D168
:10565000002602F00FF90A4C0A4D641BA410A64262
:1056600005D170BDB300EB5898470136EEE7B300A3
:10567000EB5898470136F2E7007D0008007D0008EE
:10568000047D0008007D00087047704770470300E4
:105690000A7801311A700133002AF9D17047C9B272
:1056A0008218904201D10020704703788B42FBD0D2
:1056B0000130F6E7F0B502690F6987B006000B000C
:1056C00000200291BA426DDB013FBC001433059308
:1056D0001B190393330014331C190193236804939B
:1056E000039B04981D6801352900FAF729FD049BE6
:1056F0000090AB422BD3059B019D9C460023059354
:105700000493624608CA28689446009A99B25143A5
:10571000059A1B0C8918009A53430A0C9B181A0C03
:1057200089B2059282B2521A0499000C52189BB2A7
:105730001114C31A5B18191492B21B041A43039B69
:10574000049104C56345DCD22368002B30D03000BF
:10575000029901F0C5F9002823DB340000250299E5
:1057600014341431236801C902936B461B8982B239
:105770009A1A029B5219000C1B0C1B1A10141B18AE
:105780001D1492B21B041A43039B04C48B42E9D23A
:10579000019ABB00D3181A68002A13D0009B01336A
:1057A0000093009807B0F0BD2368002B04D1013F9F
:1057B000019B043CA342F7D33761C8E71A68002A6B
:1057C00004D1013F019A043B9A42F7D33761E5E7E0
:1057D000F0B514001D00C6699DB00A940B95259F75
:1057E0000390002E0FD1102000F030FE039B021E0C
:1057F000D86104D1EF21C74BC74801F0C5FC466012
:1058000086600660C660039BDB69196800290BD0BF
:105810005A68012393404A608B60039800F016FF9A
:105820000022039BDB691A60002D1EDA01233B6016
:105830006B005B080B930B9FB84BB84A3B409342FD
:1058400016D1B74B249A13603B031B0B234301D1A2
:1058500000F083FDB34B269A0893002A02D0B24B86
:10586000269A136008981DB0F0BD00233B60E2E764
:105870000A9A0B9B129213931298139900220023F9
:10588000FAF7E4FD061E0BD00123249A1360269B31
:10589000002B02D0A54B269A1360A54B0893E1E795
:1058A0001AAB01931BAB00930398129A139B01F060
:1058B000CDF97A000590520D00D17BE0139B18962C
:1058C00019039C4B090B0B439B49571812981399CA
:1058D00019000022994BFCF7D7F9994A994BFBF72D
:1058E0000BFF994A994BFAF75FFF040038000D004F
:1058F000FCF7C4FD964A974BFBF7FEFE02000B0037
:1059000020002900FAF750FF04000D00FCF77AFD93
:1059100000220490002320002900FAF79DFD0028B2
:105920000BD00498FCF7AAFD2B002200FAF78EFD9D
:1059300043425841049B1B1A049301231593049B73
:10594000162B10D812981399049A834BD2009B18E7
:105950001A685B68FAF780FD002847D0049B013B7A
:1059600004930023159300221A9B0692DB1B5A1EF8
:105970003ED50122D31A069300230D93049B002BDE
:1059800038DB049A0D9B944663440D9300231492D4
:105990000F93229B0124092B67D8052B02DD0024DD
:1059A000043B2293229B981E032867D8FAF7B4FB86
:1059B0002B3A385B1B9B1A9EF618684BF218202A6C
:1059C0000FDD40239B1A9F40654B3800F318DC40E5
:1059D0002043FCF781FD0122624B771ECB18189201
:1059E00076E7202320009B1A9840F2E71590BAE74B
:1059F0000D92C3E7069B049A9B1A069353420F939A
:105A000000231493C5E700231093239B0E9309935F
:105A1000002B13DC01231A000E93099323920DE04F
:105A20000123F1E70023239A10939446049B6344D7
:105A30000E9301330993002B00DC0123039A00210C
:105A4000D0690422150014359D421BD9416003988A
:105A500000F0B8FD0890002817D1B021424B2E4825
:105A6000089AFF31C9E60123DDE700231094229351
:105A7000013B0E93099300221333CFE701231093C8
:105A8000023BF6E701315200DCE7039B089ADB6931
:105A90001A60099B0E2B00D9D9E0002C00D1D6E06A
:105AA000049B002B64DD0F21049A2B4B0A40D2008B
:105AB0009B181E685F68049B02241D11DB050AD534
:105AC0002A4B0D401A6A5B6A12981399FBF7D0F9BA
:105AD0000A900B910134254B0C93002D08D10A98A4
